:020000040800F2
:10000000400400201DA90008CB280008CD280008C6
:10001000D3280008CF280008D1280008D5280008D8
:10002000D5280008D5280008D5280008D5280008BC
:10003000D5280008D5280008138100084B4D00087A
:1000400027260008312600083B2600084526000820
:100050004F26000859260008632600086D26000870
:1000600077260008812600088B26000895260008C0
:100070009F260008A9260008B3260008BD26000810
:10008000C7260008D1260008DB260008E526000860
:10009000EF260008F9260008032700080D270008AE
:1000A00017270008212700082B27000835270008FC
:1000B0003F27000849270008532700085D2700084C
:1000C00067270008712700087B270008852700089C
:1000D0008F27000899270008A3270008AD270008EC
:1000E000B7270008C1270008CB270008D728000839
:1000F000D7280008D7280008D7280008D7280008E4
:10010000D7280008D7280008D5270008DF270008CF
:10011000E9270008F3270008FD2700080728000842
:10012000112800081B280008252800082F2800088F
:1001300039280008432800084D28000857280008DF
:10014000612800086B280008752800087F2800082F
:1001500000B58BB002F038FA09A802F0BDFB09A87F
:1001600008900320079000200690002005900020B2
:100170000490802003900C200290DFF8CC070190BF
:100180000220009000230FF21902DFF8C017DFF8F9
:10019000100C03F04DF909A802F079FD0BB000BD79
:1001A00070B584B004004FF4FA7003F083FD04F0DE
:1001B00039F8DFF89C07807910F0F700DFF8901726
:1001C000887104F0DFFBDFF88C270121DFF8880756
:1001D00004F0D4FC04F07DF80500DFF88007006827
:1001E000B5FBF0F00600300004F0C5FD00F018F893
:1001F0000421DFF8B40B05F01AF80A2003F05AFDC9
:100200000421DFF8A40B05F024F802A801900020D7
:100210000090002300220021182005F052F9E7E7A2
:1002200000B58BB009A80890032007900020069025
:1002300000200590002004904FF480600390662019
:100240000290DFF8680B01900320009000230FF26A
:10025000E902DFF85C1BDFF85C0B03F0E9F809A8A2
:1002600008900320079000200690002005900020B1
:100270000490802003900C200290DFF83C0B01904A
:100280000420009000230FF2E502DFF8301BDFF8B6
:10029000300B03F0CDF809A8039000200290DFF89E
:1002A000240B01900220009001230122DFF8181B8B
:1002B000DFF8180B05F02AFA09A9DFF8100B05F092
:1002C0008FFA09A8089003200790002006900020CC
:1002D0000590002004904FF4806003906620029007
:1002E000DFF8EC0A01900620009000230FF2E902EB
:1002F000DFF8E01ADFF8E00A03F09AF809A808909E
:100300000320079000200690002005900020049014
:10031000802003900C200290DFF8C00A0190052095
:10032000009000230FF28102DFF8B41ADFF8B40A5C
:1003300003F07EF80BB000BD1FB5040002AB03AAAA
:100340000021002003F0D3F9BDF80800002801D1F6
:1003500005F0BBFF02A80190002000900F230022AF
:100360000021002005F0ADF8E8E7000010B584B0EA
:1003700004000421DFF8300A04F06BFF142003F0BE
:1003800099FC0421DFF8200A04F051FF142003F047
:1003900091FC02A80190002000900C230022002173
:1003A000002005F08EF8E4E710B584B0040000F0FA
:1003B0002BF800F023FD00F065F900F041FE01F09C
:1003C00057FA02A801900020009005230022002186
:1003D000002005F076F8EAE710B584B0040004F0D8
:1003E00084F801F081F901F0EAFE01F067FF01F005
:1003F000A5FF02A801900020009003230022002105
:10040000002005F05EF8F2E7DFF844050079C0F35C
:100410008010C0074CD5DFF838054078C0F3C00025
:10042000C00745D5DFF82805007910F0BF00DFF8D8
:1004300020150871DFF8B0090078401CDFF8A81912
:100440000870DFF8A4090078012814D10020DFF833
:100450009C1908600020DFF8981908600020DFF878
:10046000941908600020DFF8901908600020DFF878
:10047000B41B08601CE0DFF870090078022817D16F
:100480000020DFF8641908700120DFF860190860A7
:100490000120DFF85C1908600120DFF858190860B6
:1004A0000120DFF8541908600120DFF8781B08608C
:1004B0007047DFF8740B0068012818D1DFF890044A
:1004C0004078C0F38000C0B2002820D1DFF880045B
:1004D000407850F00400DFF878144870DFF87004BA
:1004E000407850F08000DFF8681448700FE0DFF8C3
:1004F00060044078C0F38000C0B2002807D0DFF865
:100500005004407810F0FB00DFF844144870DFF826
:100510001C0B0068002810D1DFF834040078C0B24A
:10052000C009C0B2002818D1DFF82404007850F0C8
:100530008000DFF81C1408700FE0DFF81404007866
:10054000C0B2C009C0B2002807D0DFF804040078A8
:1005500010F07F00DFF8F8130870DFF8D40A0068A5
:1005600000280FD1DFF8E803407810F001000028E0
:1005700017D1DFF8DC03407850F00100DFF8D0132A
:1005800048700EE0DFF8C803407810F00100002842
:1005900007D0DFF8BC03407810F0FE00DFF8B0139E
:1005A0004870DFF8900A0068012810D1DFF8A00336
:1005B0004078C0F30010C0B2002818D1DFF89003D3
:1005C000407850F01000DFF8881348700FE0DFF833
:1005D00080034078C0F30010C0B2002807D0DFF8D5
:1005E0007003407810F0EF00DFF864134870DFF814
:1005F00060038079C0F3C000C0B2002811D0DFF8DA
:1006000050034078C0070CD5DFF84403007800069B
:1006100007D5DFF83C03807910F0F700DFF83013DE
:100620008871DFF8140A006800281DD1DFF8200364
:100630004078C0F34000C0B2002807D1DFF81003B3
:10064000407850F00200DFF808134870C048407846
:10065000C0B2C009C0B2002813D0BD48007950F024
:100660008000BB4908710CE0B9484078C0F34000F5
:10067000C0B2002805D0B648407810F0FD00B4495B
:1006800048707047DFF8B4090100B1484078C0F302
:100690008000C0B2002803D0012081F8920102E05E
:1006A000002081F89201AA484078C0F34000C0B20F
:1006B000002803D0012081F8930102E0002081F896
:1006C0009301A3480078C0B2C009C0B2002803D08B
:1006D000012081F8940102E0002081F894019C48F7
:1006E000407810F00100002803D0012081F8950126
:1006F00002E0002081F895019548007810F0010093
:10070000002803D0012081F8960102E0002081F842
:1007100096018F480078C0F34000C0B2002803D093
:10072000012081F8970102E0002081F897018848B4
:100730000078C0F38000C0B2002803D0012081F807
:10074000980102E0002081F8980181480078C0F308
:10075000C000C0B2002803D0012081F8990102E056
:10076000002081F899017A480078C0F30010C0B2E7
:10077000002803D0012081F89A0102E0002081F8CE
:100780009A0173480078C0F34010C0B2002803D02B
:10079000012081F89B0102E0002081F89B016C4858
:1007A0004078C0F3C000C0B2002803D0012081F817
:1007B0009C0102E0002081F89C0165484078C0F36C
:1007C0000010C00715D562484079C00711D5DFF881
:1007D000540B0078052808DBDFF8480B00780A285E
:1007E00003DA002081F89D0106E0012081F89D01D7
:1007F00002E0002081F89D0155488078C0F3800018
:10080000C0B2002803D0012081F89E0102E0002040
:1008100081F89E014E488078C0F3C000C0B2002825
:1008200003D0012081F89F0102E0002081F89F01A0
:1008300047488078C0F30010C0B2002803D00120E0
:1008400081F8A00102E0002081F8A00140488078F2
:10085000C0F34010C0B2002803D0012081F8A101EC
:1008600002E0002081F8A10139488078C0F38010AF
:10087000C0B2002803D0012081F8A20102E00020CC
:1008800081F8A20132488078C0B2C009C0B2002805
:1008900003D0012081F8A30102E0002081F8A30128
:1008A0002B48C07810F00100002803D0012081F807
:1008B000A40102E0002081F8A4012548C078C0F31B
:1008C0004000C0B2002803D0012081F8A50102E059
:1008D000002081F8A5011E48C078C0F38000C0B296
:1008E000002803D0012081F8A60102E0002081F851
:1008F000A6011748C078C0F3C000C0B2002803D0DA
:10090000012081F8A70102E0002081F8A70110482A
:10091000C078C0F30010C0B2002803D0012081F8D5
:10092000A80102E0002081F8A8010948C078C0F3BE
:100930004010C0B2002803D0012081F8A90102E0D4
:10094000002081F8A9017047A02D0020E0A8000830
:100950002C4A0020F0A80008D449002074A90008FF
:1009600038B5DFF840040400DFF8D0060500DFF8F2
:10097000700B0088002800F01282DFF8640B0088FA
:10098000022827D0C0F00B8204283DD02FD30628A0
:1009900060D03AD3082877D069D30A2800F08E8037
:1009A000C0F07F800C2800F0E280C0F0B3800E28F9
:1009B00000F02D81C0F0FE80102800F07981C0F099
:1009C0005381122800F0B081C0F08E81132800F00E
:1009D000C781E4E1A878012804D10020DFF8A41B36
:1009E000086003E00120DFF89C1B0860D7E1E8788D
:1009F000012804D10020DFF8901B086003E00120EB
:100A0000DFF8841B0860CAE1C9E16879012810D1C8
:100A10000020DFF8D81308600020DFF8D413086046
:100A20000020DFF8D01308600020DFF8CC13086046
:100A30000FE00120DFF8B41308600120DFF8B013E5
:100A400008600120DFF8AC1308600120DFF8A8136C
:100A50000860A4E1A879012804D10020DFF82C1B4C
:100A6000086003E00120DFF8241B086097E1E879C3
:100A7000012804D10020DFF8181B086003E00120E2
:100A8000DFF80C1B08608AE1287A012804D10020D5
:100A9000DFF8001B086003E00120DFF8F81A0860A7
:100AA0007DE1687A012804D10020DFF8EC1A0860A3
:100AB00003E00120DFF8E01A086070E1A87A01285D
:100AC0001BD1DFF8D80A007810F00100002814D1FB
:100AD000DFF8C80A407810F0140F0ED10020DFF8BC
:100AE000C01A0860DFF8B40A007950F00100DFF89E
:100AF000AC1A087100F0A5FC0BE05FF0804006F036
:100B00007BFADFF8980A007910F0FE00DFF88C1A03
:100B1000087144E1E87A01281CD1DFF8800A0078E6
:100B2000C0F34000C0B2002814D1DFF8700A40784A
:100B300010F0140F0ED1DFF8640A007950F00200B3
:100B4000DFF8581A08710020DFF8541A086000F026
:100B500078FC0BE05FF0804006F04EFADFF83C0ACC
:100B6000007910F0FD00DFF8341A087117E1287BD6
:100B700001281ED1DFF8240A007810F001000028B7
:100B800017D10120DFF8581B08700120DFF8541B33
:100B90000870DFF8080A007950F00100DFF8FC194E
:100BA0000871DFF8F809007950F00400DFF8EC195B
:100BB0000871F4E0687B01281CD1DFF8E0090078B7
:100BC000C0F38000C0B2002814D1DFF8D00940780B
:100BD00010F0140F0ED1DFF8C409007950F00400B2
:100BE000DFF8B81908710020DFF8741B086000F006
:100BF00079FC0BE0DFF86C0B06F0FEF9DFF89C09DE
:100C0000007910F0FB00DFF894190871C7E0A87BA9
:100C100001281CD1DFF884090078C0F3C000C0B2FD
:100C2000002814D1DFF87409407810F0140F0ED1A9
:100C3000DFF86809007950F00800DFF860190871E2
:100C40000020DFF81C1B086000F04CFC0BE0DFF814
:100C5000140B06F0D1F9DFF84409007910F0F70021
:100C6000DFF8381908719AE0E87B01281FD1DFF816
:100C70002C090078C0F38000C0B2002817D10120F1
:100C8000DFF85C1A08700120DFF8581A0870DFF8E6
:100C90000C09007950F00100DFF800190871DFF845
:100CA000FC08007950F00400DFF8F018087176E0D5
:100CB000287C012817D1DFF8800B0068DFF87C1B47
:100CC0000860DFF8781B0D2003F087FADFF86C0B63
:100CD000016819204143A183DFF8600B01681920E6
:100CE0004143090C61835AE0687C01281BD1DFF87D
:100CF0004C0B0168DFF8400B0068091ADFF8800B25
:100D00000160DFF87C1B112003F067FADFF8700B3D
:100D1000016819204143A184DFF8640B01681920A0
:100D20004143090C61843AE0A87C012817D1DFF81F
:100D3000680B0068DFF8641B0860DFF8601B152093
:100D400003F04BFADFF8540B016819204143A185E9
:100D5000DFF8480B016819204143090C61851EE04A
:100D6000E87C01281BD1DFF8340B0168DFF8280B81
:100D70000068091ADFF8280B0160DFF8241B19202E
:100D800003F02BFADFF8180B016819204143A18604
:100D9000DFF80C0B016819204143090C618631BD55
:100DA00040400020A03D0020000000204004002022
:100DB000ECA7000810410020A02F00207CA800080C
:100DC000B0420020E197000800A90008A0490020D7
:100DD000401400204CA80008E0410020A031002071
:100DE00090A8000880430020704B0020BC012242E4
:100DF000B4012242940123429401224238B5DFF823
:100E0000A40704008D480500DFF8D40600880028F8
:100E100000F00781DFF8C806008801280AD01428EE
:100E200031D015286CD0162800F0A780172800F0C4
:100E3000BC80F6E06878002812D1DFF8E80400787A
:100E4000012804D0DFF8DC04007800281AD1DFF88C
:100E50004C07807850F00100DFF84017887011E0EF
:100E6000DFF8C0040078012804D0DFF8B804007867
:100E7000002807D1DFF82407807810F0FE00DFF8A3
:100E80001C178870CDE0287D01281CD1DFF80C07E5
:100E9000407950F00100DFF8041748710020DFF8B6
:100EA000041A0870DFF8000A0078002827D1FF2014
:100EB0008DF800006946DC2003F054F90120DFF8CA
:100EC000E81908701BE0DFF8D406407910F0FE0046
:100ED000DFF8C81648710020DFF8CC190870DFF879
:100EE000C409007800280AD100208DF80000694666
:100EF000DC2003F037F90120DFF8A819087090E032
:100F0000687D01281CD1DFF89406407950F002007A
:100F1000DFF8881648710020DFF890190870DFF8B4
:100F200090090078002827D1FF208DF8000069463D
:100F3000DD2003F017F90120DFF8741908701BE0B9
:100F4000DFF85806407910F0FD00DFF850164871C0
:100F50000020DFF85C190870DFF8500900780028DD
:100F60000AD100208DF800006946DD2003F0FAF870
:100F70000120DFF83819087053E0A87D012813D14B
:100F80000020DFF830190860DFF82819452003F049
:100F900024F9DFF820090068A4F88C00DFF81409B0
:100FA0000068000CA4F88A003BE0E87D01281CD111
:100FB000DFF8E805807950F00400DFF8E01588716B
:100FC0000020DFF8F4180870DFF8F0080078002837
:100FD00027D1FF208DF800006946DF2003F0C2F81A
:100FE0000120DFF8D81808701BE0DFF8B005807921
:100FF00010F0FB00DFF8A41588710020DFF8BC18A2
:101000000870DFF8B408007800280AD100208DF8B5
:1010100000006946DF2003F0A5F80120DFF89818EA
:10102000087031BD90012142000123421481214208
:10103000248121420481224204012342802A00208B
:1010400070B5DFF860050400DFF874080088002838
:1010500000F06781DFF868080088012826D003289F
:101060002ED01D2836D0212856D0252876D02928E4
:1010700000F096802D2800F0B580312800F0D48053
:10108000352800F0F380372800F00181392800F07E
:101090000E813B2800F016813D2800F01E813F287C
:1010A00000F02681412800F02E8136E16088DFF8CB
:1010B00014180880DFF80C18012003F066F82CE102
:1010C000E088DFF804180880DFF8FC17032003F03D
:1010D0005CF822E1B4F93A000500B4F93C000600DE
:1010E0002DB228000012DFF8E4170968C870DFF895
:1010F000DC070068857036B230000012DFF8CC17CC
:1011000009684870DFF8C40700680670DFF8C01788
:101110001D2003F062F800E1B4F942000500B4F9C3
:10112000440006002DB228000012DFF8A817096855
:10113000C870DFF8A0070068857036B23000001272
:10114000DFF8901709684870DFF8880700680670B4
:10115000DFF88417212003F040F8DEE0B4F94A00FC
:101160000500B4F94C0006002DB228000012DFF88B
:101170006C170968C870DFF864070068857036B2BC
:1011800030000012DFF8541709684870DFF84C0788
:1011900000680670DFF84817252003F01EF8BCE051
:1011A000B4F952000500B4F9540006002DB228002D
:1011B0000012DFF830170968C870DFF828070068E8
:1011C000857036B230000012DFF8181709684870D1
:1011D000DFF8100700680670DFF80C17292002F00E
:1011E000FCFF9AE0B4F95A000500B4F95C0006006F
:1011F0002DB228000012DFF8F4160968C870DFF875
:10120000EC060068857036B230000012DFF8DC169C
:1012100009684870DFF8D40600680670DFF8D01659
:101220002D2002F0DAFF78E0B4F962000500B4F98D
:10123000640006002DB228000012DFF8B816096815
:10124000C870DFF8B0060068857036B23000001252
:10125000DFF8A01609684870DFF898060068067085
:10126000DFF89416312002F0B8FF56E0B4F86A00B7
:10127000DFF888160880DFF88406B0F90000A4F8CB
:10128000A600DFF87816352002F07FFF45E0B4F8BD
:101290006E00DFF86C160880B4F86E00DFF8641694
:1012A0000880DFF85C16372002F06FFF35E0B4F8F5
:1012B0007200DFF854160880DFF84C16392002F06F
:1012C00064FF2AE0B4F87600DFF840160880DFF803
:1012D0003C163B2002F059FF1FE0B4F87A00DFF81B
:1012E00030160880DFF828163D2002F04EFF14E08B
:1012F000B4F87E00DFF81C160880DFF818163F20CF
:1013000002F043FF09E0B4F88200DFF80C16088011
:10131000DFF80416412002F038FF0020DFF8A015A6
:10132000088070BD6C4B002010B59E480400DFF8AB
:10133000D40C0078042828D1B4F87600DFF8CC1556
:101340000880DFF8C8050088002803D10120DFF8F5
:10135000BC150880B4F87A00DFF8B4150880DFF80F
:10136000B0050088002803D10120DFF8A41508800B
:10137000DFF898050188012005F084FDDFF890056D
:101380000188012005F002FD5AE0DFF8780C0078B2
:10139000092828D1B4F87E00DFF878150880DFF836
:1013A00074050088002803D10120DFF86815088043
:1013B000B4F88200DFF860150880DFF85C0500886B
:1013C000002803D10120DFF850150880DFF844051C
:1013D0000188002005F056FDDFF83C05018800205B
:1013E00005F0D4FC2CE0DFF81C0C00780C2827D189
:1013F000B4F87E00DFF81C150880DFF818050088B7
:10140000002803D10120DFF80C150880B4F8820011
:10141000DFF804150880DFF800050088002803D1F4
:101420000120DFF8F4140880DFF8E80401880120C7
:1014300005F028FDDFF8E0040188012005F0A6FC96
:1014400010BD70B584B0002456480500DFF8CC0408
:101450000600B07A012805D15048007810F001004C
:10146000002809D0F07A012839D14C480078C0F31F
:101470004000C0B2002832D100F076F901282ED108
:10148000E4B2002C20D16888DFF838140880DFF837
:1014900034040088002803D10120DFF828140880D4
:1014A000B07A012805D1DFF81C040188002005F07E
:1014B000E9FCF07A012805D1DFF808040188012051
:1014C00005F0E0FC0120040002A80190002000903B
:1014D000052300220021002003F0F3FFB9E77FBDC0
:1014E000A84A002070B584B000242E480500DFF81B
:1014F0002C040600707B012806D128480078C0F330
:101500008000C0B2002809D0B07B012839D123481F
:101510000078C0F3C000C0B2002832D100F024F936
:1015200001282ED1E4B2002C20D1E888DFF89813EE
:101530000880DFF894030088002803D10120DFF839
:1015400088130880707B012805D1DFF87C030188AF
:10155000002005F01BFCB07B012805D1DFF86803F3
:101560000188012005F012FC0120040002A801906E
:1015700000200090052300220021002003F0A1FF9D
:10158000B8E77FBD9C0121429401214280012242A3
:1015900088012242B8012242980123422C4A0020AD
:1015A0008C012242A03D002010B584B0DFF870030A
:1015B00004004C480078002817D0DFF8E80CC07809
:1015C00050F08000DFF8DC1CC870B4F87A00BE4927
:1015D0000880BD480088002802D10120BA4908804F
:1015E000B9480188002005F0D1FB3D48007800286B
:1015F00017D0DFF8B00CC07850F04000DFF8A41C22
:10160000C870B4F87600AF490880AE48008800285A
:1016100002D10120AB490880AA480188002005F0CA
:1016200031FC30480078012803D02D48007801288B
:1016300055D100F099F8012851D1DFF8680C4078B5
:10164000C0F38000C0B2002849D1DFF8580C007800
:10165000C0F38000C0B2002815D0424805F0CCFC91
:10166000DFF8400CC07810F07F00DFF8381CC8703D
:1016700000201C490870DFF82C0C007910F0FB00EA
:10168000DFF8201C0871DFF81C0C007810F0010056
:10169000002819D05FF0804005F0AEFC00206649BC
:1016A0000860DFF8000CC07810F0BF00DFF8F41B12
:1016B000C87000200A490870DFF8E80B007910F0C4
:1016C000FE00DFF8E01B087102A8019000200090E6
:1016D000052300220021002003F0F3FEA1E71FBD37
:1016E0006D4B00206E4B00208C4908008C4A110085
:1016F000DFF8B02B927852F00102DFF8A83B9A7025
:101700000122DFF8A43B1A600122DFF8A03B1A6037
:101710000122DFF89C3B1A600122DFF8983B1A6037
:101720000122DFF8943B1A60002280F8AA210022EF
:1017300080F8AB21002280F8AC21002280F8AD2196
:10174000002280F8AE21DFF85C2B527912F0FB0208
:10175000DFF8503B5A710022A1F886207047000044
:101760008401224200040040DFF8380B407910F079
:10177000010000285DD0DFF82C0B8079C0F38000D9
:10178000C0B2002821D0DFF81C0B4078C0B2C009DD
:10179000C0B2002801D001204CE0DFF8900B0078A7
:1017A000082806DBDFF8840B00780A2801DA01201C
:1017B00040E0DFF8F00A4078C0F30010C0B2002823
:1017C00001D0002036E0012034E0DFF8D80A40786C
:1017D000C0B2C009C0B2002801D001202AE0DFF861
:1017E0004C0B0078052806DBDFF8400B00780A2850
:1017F00001DA01201EE0DFF8AC0A4078C0F30010E7
:10180000C0B2002809D0DFF89C0A807950F00800A7
:10181000DFF8901A887100200CE0DFF8880A8079E0
:10182000C0F3C000C0B2002801D1012002E00020B6
:1018300000E00120704700004C4A00205C4A002074
:10184000DFF8C0070078082810DBDFF8B807007859
:101850000A280BDADFF8D80A0078C0B2C009C0B293
:10186000002801D0012002E0002000E001207047A4
:101870002B490800B0F89011DFF8B82A11807047A2
:10188000604A0020DFF8AC0A0088002801D101205E
:1018900000E0002070470000404A0020544A002029
:1018A000584A0020724B0020714B0020744B0020DE
:1018B000734B00207C4A0020764B0020754B0020A3
:1018C000AC4A00203C4B00203E4B0020080000208A
:1018D000684A002010000020704A002018000020F4
:1018E000784A002004000020644A00200C000020F8
:1018F0006C4A002014000020744A0020484B00204D
:101900004E4B0020504B0020524B0020404B0020FB
:10191000424B0020444B0020464B0020802A0020F0
:10192000A03D00203EB5DFF8200C0400DFF8080AD7
:101930000500DFF8D0060078002829D002284DD015
:1019400033D3042800F0CB806CD3062800F05781F5
:10195000C0F03081082800F0DD81C0F098810A28AD
:1019600000F07D83C0F036820C2800F09983C0F02F
:1019700089830E2800F0C683C0F09783102800F0FA
:10198000F782C0F0D883112800F05D8300F016BC08
:10199000DFF81009007810F00500052803D10120B8
:1019A000DFF86016087000F009BCDFF8F80840782E
:1019B000C0070BD5DFF8EC080078000606D502203A
:1019C000DFF840160870002085F8AA01FFF75AFFDB
:1019D000012802D1002085F8AA01EFE3FFF752FFAA
:1019E000012817D1002085F8AA010020DFF85C1B30
:1019F0000880DFF8B008407950F00400DFF8A41840
:101A000048710020DFF8AC1808600320DFF8F415F7
:101A1000087006E0012085F8AA010120DFF8E4152E
:101A20000870CBE3DFF87C084079C0F34000C0B217
:101A3000002803D00020DFF874180860DFF8100BCE
:101A40000068DFF8101B0860B4F87600DFF8081BA8
:101A50000880DFF8040B0088002803D10120DFF89C
:101A6000F81A0880DFF8F40A0068DFF8F41A086052
:101A7000B4F87A00DFF8EC1A0880DFF8E80A00888A
:101A8000002803D10120DFF8DC1A0880DFF8C80A3B
:101A90000188012005F0F6F9DFF80808007950F018
:101AA0000200DFF800180871DFF8B80A0188012089
:101AB00005F06CF9DFF8EC07007950F00800DFF86A
:101AC000E4170871DFF8DC07407950F08000DFF898
:101AD000D41748710420DFF82C1508706EE3DFF886
:101AE000C4078079C0F34000C0B200283DD1DFF8C0
:101AF000640A006800280BD15FF0804005F07CFA92
:101B0000DFF8A007007910F0FD00DFF898170871E2
:101B1000DFF84C0A006800280BD1DFF84C0A05F00A
:101B20006BFADFF88007007910F0F700DFF8741720
:101B30000871DFF82C0A0068DFF8181A09680843F2
:101B4000002836D1DFF85C07407950F00800DFF854
:101B500054174871DFF8140A0088DFF8141A088057
:101B60000520DFF8A014087023E00120DFF83C17FF
:101B700008600120DFF8301708600020DFF8D41972
:101B800008600020DFF8D8190860DFF8180700792E
:101B900010F0FD00DFF80C170871DFF80807007976
:101BA00010F0F700DFF8FC1608710E20DFF854146F
:101BB000087003E3DFF8BC090078012818D1002081
:101BC000DFF8B0190870DFF8DC06407910F0F70094
:101BD000DFF8D01648710020DFF8D0160860062024
:101BE000DFF82014087041F2883002F063F805E055
:101BF000DFF87C09B0F90000A4F8A600DEE2DFF807
:101C000078090068002817D1002085F8AC01002071
:101C1000DFF8941608600720DFF8E8130870052045
:101C2000DFF858190880DFF87C06407950F0200072
:101C3000DFF87016487129E00120DFF8701608609F
:101C40000120DFF864160860012085F8AC0100204F
:101C5000DFF8001908600020DFF804190860DFF8D9
:101C60004406007910F0FD00DFF838160871DFF83F
:101C70003406007910F0F700DFF82816087100200C
:101C8000DFF8341608600E20DE49087096E2DFF8AF
:101C900014064079C0F34010C0B2002839D1DFF8F3
:101CA000E008006800280AD1002085F8AB01002078
:101CB000DFF8FC1508600820D249087029E00120EF
:101CC000DFF8E81508600120DFF8DC150860012066
:101CD00085F8AB010020DFF87C1808600020DFF8F1
:101CE00080180860DFF8BC05007910F0FD00DFF80F
:101CF000B4150871DFF8AC05007910F0F700DFF8D3
:101D0000A41508710020DFF8B01508600E20BD4949
:101D1000087053E2DFF86C080068DFF838180860D4
:101D2000B4F87E00DFF860180880DFF85C080088EF
:101D3000002803D10120DFF850180880DFF84C0894
:101D40000068DFF81C180860B4F88200DFF840185B
:101D50000880DFF83C080088002803D10120DFF864
:101D600030180880DFF820080188002005F08AF884
:101D7000DFF83005007950F00100DFF82815087110
:101D8000DFF82005007950F01000DFF81815087111
:101D9000DFF8FC070188002004F0F8FFDFF80405F5
:101DA000007950F00400DFF8FC140871DFF8F40447
:101DB000007950F02000DFF8EC140871DFF8E4043B
:101DC000407950F04000DFF8DC14487109208D495B
:101DD0000870F3E1DFF8A807006800284CD1DFF8AD
:101DE00098070068002847D1DFF8B804807910F020
:101DF0000100002840F0BB80DFF858070068002889
:101E000013D15FF0804005F0F7F8DFF8980400790F
:101E100010F0FE00DFF88C140871DFF888040079F8
:101E200010F0EF00DFF87C140871DFF83407006869
:101E3000002813D1DFF8300705F0DEF8DFF864047E
:101E4000007910F0FB00DFF85C140871DFF854042F
:101E5000007910F0DF00DFF84C140871DFF800079C
:101E60000068DFF8F01609680843002840F07F801A
:101E70000A20644908707AE00120DFF83414086011
:101E80005FF0804005F0B8F8DFF81804007910F032
:101E9000FE00DFF810140871DFF80804007910F074
:101EA000EF00DFF800140871DFF8BC0605F0A4F8B5
:101EB000DFF8F003007910F0FB00DFF8E813087199
:101EC000DFF8E003007910F0DF00DFF8D8130871C5
:101ED000DFF8C0060068DFF888160860DFF8B8068B
:101EE0000068DFF870160860B4F87600DFF898161E
:101EF0000880DFF894060088002803D10120DFF86D
:101F000088160880B4F87A00DFF884160880DFF8B5
:101F100080060088002803D10120DFF874160880AD
:101F2000DFF864060188012004F0ACFFDFF87403D9
:101F3000007950F00200DFF86C130871DFF85006EA
:101F40000188012004F022FFDFF85803007950F0E7
:101F50000800DFF850130871DFF84803407950F0AB
:101F60008000DFF84013487110202649087025E1F1
:101F7000CC488079C0F34000C0B2002844D1DFF8DB
:101F8000D4050068002809D15FF0804005F034F8DE
:101F9000C448007910F0FD00C2490871DFF8C0059F
:101FA0000068002809D1DFF8C00505F025F8BD4814
:101FB000007910F0F700BB490871DFF8A40500684C
:101FC000DFF890150968084300283BD10120B74984
:101FD00008600120B449086041F2883001F06AFECF
:101FE0000020B24908600520DFF890150880AD4850
:101FF000407950F02000AB49487111200149087028
:1020000020E000BF6C4B00200120A849086001209F
:10201000A54908600020DFF83C1508600020DFF8C3
:10202000401508609F48007910F0FD009D49087137
:102030009C48007910F0F7009A4908710E20DFF8EB
:102040005C150870BAE097484079C0F34010C0B200
:10205000002803D10620DFF844150870AEE0012007
:1020600093490860B4F87200DFF8341508808D4891
:10207000407950F010008B4948710B20DFF81C1597
:1020800008709BE0DFF81C050078012807D10020CC
:10209000DFF8101508700C20DFF8001508708DE0CF
:1020A0000D20DFF8F814087088E001207F490860EF
:1020B00001207D490860DFF8F0040068401CDFF86B
:1020C000E8140860DFF8E014452002F086F8DFF835
:1020D000D8040068A4F88C00DFF8CC040068000C79
:1020E000A4F88A0002A80190002000904FF47A73AF
:1020F00000220021002003F0E4F90E20DFF89C14F8
:1021000008705BE00120DFF8A414087065480079CE
:1021100050F00100634908710120DFF89414087041
:102120006048007950F004005E4908710F20DFF824
:102130006C14087042E0FFF737FADFF8700400789B
:1021400000283BD1DFF868040078002836D1012050
:10215000574908600120574908600120524908602A
:10216000012052490860012053490860002085F889
:10217000AA01002085F8AB01002085F8AC01002001
:1021800085F8AD014748407910F0FB00454948719A
:102190004448807910F0FD004249887141484079F7
:1021A00010F0BF003F4948713E48407910F07F0071
:1021B0003C4948710020DFF8E413087037BD80B552
:1021C0003848407910F0BF003649487135484079A9
:1021D00010F07F00334948710020DFF88413086055
:1021E0000020DFF8701308600120DFF8C0130870CA
:1021F0002C48007950F001002A4908710120DFF8CD
:10220000B01308702748007950F004002549087180
:102210002448407910F0FB00224948710020DFF883
:102220002C1308801F48407910F0F7001D494871B1
:102230000020DFF8401308700020DFF83413088016
:102240000020DFF85C1308801648407910F0EF009A
:10225000144948710020DFF84C1308701148807948
:1022600010F0F7000F498871002013490860002022
:102270002E4908705FF0804004F0BEFEBA4804F0BA
:10228000BBFE0848407910F00100002809D005483D
:10229000407910F0FE00034948710120DFF8141363
:1022A000087001BD2C4A00209C012142940121426A
:1022B00080012242880122429801234280B50020F9
:1022C000BD490860FFF710FAFFF76EF9BB480078C8
:1022D00010F00500052811D1B848407810F07F00B3
:1022E000B6494870B548007910F07F00B3490871CD
:1022F0000120B149086000200C490870AD48007801
:10230000012808D10020AB490870AC48407950F052
:102310000100AA49487101BD80B55FF0804004F01A
:102320006BFE914804F068FE01BD00006C4B00207C
:102330002C4A002038000020802A002010B584B0EC
:10234000814804009D484078C0F38000C0B2002856
:1023500002D0FFF734FFF5E09848407800061ED51C
:1023600096484078C0F38000C00718D4934800799D
:10237000000614D5FFF7F8F9002800F0E380FFF716
:10238000F3F9012840F0DE808C48807910F0030FCB
:1023900002D101208A490860FFF790FFD2E0874808
:1023A000807810F00100002800F0B580FFF7DCF91C
:1023B000002804D0FFF744FA002840F09480FFF78B
:1023C000ABFFFFF7D1F9002804D0FFF739FA002856
:1023D00040F0868079484078C0F38000C0B2002881
:1023E00002D0FFF7ECFE7BE06C48007809286AD148
:1023F00063480068002806D15F480068002802D1C1
:10240000FFF78AFF61E001206E4908605FF08040BD
:1024100004F0F2FD6948007910F0FE006749087188
:102420006648007910F0EF00644908714E4804F0E6
:10243000E3FD6248007910F0FB00604908715F48D5
:10244000007910F0DF005D49087152480068444986
:102450000860514800683F490860B4F876004A496E
:10246000088049480088002802D101204649088098
:10247000B4F87A004649088045480088002802D10F
:1024800001204349088040480188012004F0FAFCFB
:102490004A48007950F00200484908713C480188D8
:1024A000012004F073FC4548007950F008004349CE
:1024B00008714248407950F080004049487110202E
:1024C000364908700CE0FFF727FF02A801900020B2
:1024D0000090052300220021002002F0F2FF70E7A7
:1024E000FEF722FF2EE0FFF73FF901282AD1FFF780
:1024F000A7F9012826D13148807910F0030F02D1C5
:1025000001202F4908601A48B0F90000A4F8A6007D
:10251000FFF708FA16E0FFF727F9002802D1FFF7C6
:10252000FBFE0FE0FFF720F901280BD1234880794B
:1025300010F0030F02D1012021490860FEF710FAC4
:10254000FFF732F81FBD0000A03D00204C4B0020DB
:102550005C4A0020484A0020404B0020544A00209A
:102560003C4A0020424B002000040040484B002021
:102570004A4B00207A4B00200C812242544B002011
:1025800008812242604A0020444B0020584A002023
:10259000464B0020504A0020444A00206C4B00204B
:1025A000524B00207B4B00207C4A00206D4B0020CA
:1025B0006E4B00206F4B0020B80122422C4A0020B5
:1025C000980123428001224280B504F021FD01BD23
:1025D00010B50400442C04D214F11000C0B204F071
:1025E0002DFD10BD70B504000D000026442C0CD24A
:1025F00004F012FD060004F0F9FDB24840F8245042
:1026000004F008FE300004F00BFD70BD10B5002092
:102610000400442C06D20FF2B1212000FFF7E2FFA4
:10262000641CF6E710BD80B5002000F02DF901BD57
:1026300080B5012000F028F901BD80B5022000F02E
:1026400023F901BD80B5032000F01EF901BD80B55E
:10265000042000F019F901BD80B5052000F014F93F
:1026600001BD80B5062000F00FF901BD80B507203F
:1026700000F00AF901BD80B5082000F005F901BDA0
:1026800080B5092000F000F901BD80B50A2000F0F6
:10269000FBF801BD80B50B2000F0F6F801BD80B558
:1026A0000C2000F0F1F801BD80B50D2000F0ECF831
:1026B00001BD80B50E2000F0E7F801BD80B50F2008
:1026C00000F0E2F801BD80B5102000F0DDF801BD9A
:1026D00080B5112000F0D8F801BD80B5122000F0BF
:1026E000D3F801BD80B5132000F0CEF801BD80B550
:1026F000142000F0C9F801BD80B5152000F0C4F821
:1027000001BD80B5162000F0BFF801BD80B51720CF
:1027100000F0BAF801BD80B5182000F0B5F801BD91
:1027200080B5192000F0B0F801BD80B51A2000F086
:10273000ABF801BD80B51B2000F0A6F801BD80B547
:102740001C2000F0A1F801BD80B51D2000F09CF810
:1027500001BD80B51E2000F097F801BD80B51F2097
:1027600000F092F801BD80B5202000F08DF801BD89
:1027700080B5212000F088F801BD80B5222000F04E
:1027800083F801BD80B5232000F07EF801BD80B53F
:10279000242000F079F801BD80B5252000F074F800
:1027A00001BD80B5262000F06FF801BD80B527205F
:1027B00000F06AF801BD80B5282000F065F801BD81
:1027C00080B5292000F060F801BD80B52A2000F016
:1027D0005BF801BD80B5322000F056F801BD80B530
:1027E000332000F051F801BD80B5342000F04CF8E2
:1027F00001BD80B5352000F047F801BD80B5362019
:1028000000F042F801BD80B5372000F03DF801BD71
:1028100080B5382000F038F801BD80B5392000F0CF
:1028200033F801BD80B53A2000F02EF801BD80B527
:102830003B2000F029F801BD80B53C2000F024F8D1
:1028400001BD80B53D2000F01FF801BD80B53E20E0
:1028500000F01AF801BD80B53F2000F015F801BD69
:1028600080B5402000F010F801BD80B5412000F097
:102870000BF801BD80B5422000F006F801BD80B51F
:10288000432000F001F801BD70B50400002604F0FB
:10289000C3FB060004F0AAFC00F0C4F804F0BAFC84
:1028A000300004F0BDFB442C07D2064850F8240049
:1028B00005002800002800D0A84700F0C5F870BD2A
:1028C00000000000303F00207047FEE7FEE7FEE713
:1028D000FEE7FEE7FEE7704770B5040002F06BF913
:1028E0000020DFF8741808700020DFF8B0180870B6
:1028F0000020DFF8AC1808700020DFF8A818086086
:102900000020DFF8A41808600020DFF8A018086095
:102910000020DFF89C180870DFF8980800680A218A
:10292000B0FBF1F0DFF890180860DFF8900800685D
:10293000002810D0DFF8880800680500002D0AD0B4
:10294000DFF8780800680600002E04D0761E00200C
:1029500028602D1DF8E70020DFF8681808600020C7
:10296000DFF8641808600020DFF80C190860002008
:10297000DFF8081908600020DFF80419086000205B
:10298000DFF8001908600020DFF84019086004F043
:102990007DFC00F097FB200001F052F82088002811
:1029A0003FD1200000F0C3F92088002839D1200051
:1029B00004F0D0FC2088002833D1200005F066F810
:1029C000208800282DD1200005F0D8F82088002884
:1029D00027D1200005F0E0F82088002821D1200030
:1029E00005F009F9208800281BD1200005F060F9C6
:1029F0002088002815D1200005F068F920880028DB
:102A00000FD1200005F0BEF92088002809D1200050
:102A100002F050FF2088002803D105F0C7F905F027
:102A2000DFFA70BDDFF87407007801280BD1DFF8FA
:102A300028070078FA2806DADFF81C070078401C1F
:102A4000DFF814170870704710B50024DFF84C0742
:102A5000007801285BD104F0DFFA0400DFF8F80603
:102A60000078002803D1200004F0DAFA4FE0DFF804
:102A7000E8060078401EDFF8E0160870DFF8D80698
:102A80000078002803D0200004F0CAFA3FE0DFF805
:102A900010070078002803D0200004F0C1FA36E0C7
:102AA00004F0FFFBDFF8D4180870DFF8D0080078D6
:102AB0000C21DFF8CC2801FB00200068DFF8C418E7
:102AC0000860DFF8C0080068DFF8BC1809688842B1
:102AD00003D1200004F0A4FA19E0DFF8A808006888
:102AE000D0F88C00401CDFF89C180968C1F88C00F5
:102AF000DFF898080068401CDFF8901808605FF065
:102B00008050DFF88C180860200004F089FA10BDAE
:102B100010B50024DFF84006007800283ED1DFF829
:102B200080060078002839D104F076FA040004F019
:102B3000B8FBDFF848180870DFF8400800780C216F
:102B4000DFF83C2801FB00200068DFF83818086037
:102B5000DFF830080068DFF830180968884203D1D0
:102B6000200004F05DFA19E0DFF818080068D0F8DA
:102B70008C00401CDFF80C180968C1F88C00DFF8E5
:102B80000C080068401CDFF8041808605FF08050F3
:102B9000DFF8FC170860200004F042FA10BD38B5D9
:102BA00004000025DFF8B0050078002803D046F6C1
:102BB0006250208026E0DFF8E4050078012803D089
:102BC00045F6896020801DE0DFF8C8070078FA2804
:102BD00003DB45F20920208014E004F01DFA050013
:102BE00004F004FBDFF8AC070078401CDFF8A41702
:102BF000087000F049FB04F00DFB280004F010FA07
:102C00000020208031BD38B504000025DFF84805DC
:102C10000078002803D046F66550208036E0DFF8C3
:102C20007C050078012803D045F6896020802DE0DE
:102C3000DFF860070078002803D146F66450208052
:102C400024E004F0E9F9050004F0D0FADFF84407C5
:102C50000078401EDFF83C170870DFF8380700786E
:102C6000002808D004F0D6FA280004F0D9F946F676
:102C7000635020800AE000F011FB04F0CBFA28003A
:102C800004F0CEF9FFF744FF0020208031BD10B5DD
:102C90000400DFF808050078002826D104F001FBC5
:102CA000DFF8D8160870DFF8D4060078DFF8E816E9
:102CB0000870DFF8C80600780C21DFF8C42601FB95
:102CC00000200068DFF8BC160860DFF8B80600686E
:102CD000DFF8B41608600120DFF8C014087005F0B2
:102CE00009FA43F69920208002E045F68A602080A8
:102CF00010BD38B50500002404F08EF9040004F07E
:102D000075FADFF898060068401CDFF89016086036
:102D1000DFF88C060068401CDFF88416086004F0B9
:102D200079FA200004F07CF901F03CFFE4E710B5EB
:102D30008AB004000020DFF86416086008940320BD
:102D40000790002006900020059000200490DFF8F6
:102D5000540600680390DFF8500600680290DFF820
:102D60004C0600680190092000900023DFF84026FF
:102D7000DFF84016DFF8400600F05AFB0AB010BD3D
:102D80002DE9F04104000D0016001F00DFF8F805E2
:102D9000006880F834600020DFF8EC15096881F8DD
:102DA00035003900DFF8E005006800F015FB002D64
:102DB0000FD015F108008046E56001222100DFF800
:102DC000C805006800F017F82100404600F073F8CD
:102DD00009E00020DFF8B0150968C8870020DFF897
:102DE000A81509680863DFF8A0050168280000F04D
:102DF0001DF8BDE8F08110B4C287016300242300F0
:102E00009BB292B293420FD200244C6000240C601B
:102E100000240C6100244C6100240C830024CC614C
:102E2000886020315B1CEBE710BC704730B4002891
:102E30000CD04568C1F8C85010F108052A00156883
:102E40002B009D682C00256AC56113E091F8345071
:102E5000022D02D0072D05D009E0DFF86055C1F83A
:102E6000C85007E0DFF85855C1F8C85002E00DA57A
:102E7000C1F8C85030BC704730B40AA5C1F8C8507A
:102E800010F108052A0015682B00002B04D09D685E
:102E90002C00256AC56101E002A5C56130BC704700
:102EA00000000000200000000021016000214160BE
:102EB000002101817047F0B48F683B0093F83770B0
:102EC0003A000789002F08D10127078100274F60AA
:102ED00000270F600160416028E007897F1C07819F
:102EE00007683E00002E08D0B7683C0094F83770A1
:102EF000D2B2BA4201D37668F4E7002E07D1002798
:102F00004F6047683D000D60696041600EE03768C2
:102F1000002F05D1316000270F604E60016005E091
:102F200037683D000D604E6069603160F0BC7047ED
:102F30002DE9F0410400206B0600E08F0500ADB2E2
:102F4000002D0BD0F068804618F108000700310012
:102F5000380000F009F820366D1EF0E70020E08709
:102F600000202063BDE8F08110B40489012C04D155
:102F7000002404600024446017E00C68002C05D194
:102F80004C68230000241C6003600EE04C68002C99
:102F900005D10C68220000245460426005E00C68F2
:102FA00022004C68230053601A600489641E048167
:102FB00000244C6000240C6010BC70472DE9F041E7
:102FC00082B004000D0016001F00DDF8208095F887
:102FD000360000280BD002280AD008D3042806D0D7
:102FE00006D306282DD002D307282AD052E051E07C
:102FF00095F83400032809D1CDF800803B009BB23E
:1030000032002900200000F047F804E0EE65A5F842
:103010006070C5F84080002C06D02800FFF788FFBC
:1030200029002000FFF728FF280000F0F3F9002016
:1030300085F83600002085F83500002085F834003A
:1030400028E095F83400032809D1CDF800803B0032
:103050009BB232002900200000F01EF804E0EE656B
:10306000A5F86070C5F84080280004F0B8FA002C7C
:1030700006D02800FFF75CFF29002000FFF7FCFEC8
:10308000042085F83600002085F83500002085F8FA
:103090003400FFE7BDE8F381F0B4049C0F6B3E0001
:1030A000CF8F3D00ADB2002D0AD0F768B84204D1F1
:1030B000306172613383F46102E020366D1EF1E706
:1030C000F0BC704700221000C0B20A280DD2C0B276
:1030D0000C22AB4B02FB0032110000220A810022BD
:1030E0000A6000224A60401CEEE7704710B50400F9
:1030F00094F8370004F0E8F894F83700A649097806
:10310000884203D1200000F029F802E0200000F0FE
:1031100001F810BD30B490F837300C24984D04FB02
:10312000035319000B89002B08D101230B810023C5
:10313000C36000230361086048600AE00B895B1CE0
:103140000B810B68C360002303610B681A001061D8
:10315000086030BC70470000834B002030B490F80A
:1031600037300C24864D04FB035319000B89002BC8
:1031700008D101230B810023C36000230361086091
:10318000486009E00B895B1C0B810023C3604B681E
:103190001A000261D060486030BC7047844B002048
:1031A000874B0020EC4A0020F04A0020F44A00201F
:1031B000884B002074A90008F84A00204CA9000898
:1031C00048A90008B84A0020BC4A002010B404896D
:1031D000002C02D0022C01D00DD21AE0046821008C
:1031E000446822000A610024CC6000241461D1608C
:1031F000026041600DE00468210044682200CC6850
:10320000230000241C610024CC600A61D1600360AB
:10321000416010BC7047F8B5040094F837000C21E9
:10322000574A01FB0020050020690600E0680700FE
:10323000002E13D1002F0AD1002028810020286001
:103240000020686094F8370004F056F80FE02889F1
:10325000401E2881002038612F6008E02889401E28
:103260002881F760002F01D16E6000E03E610020F0
:1032700020610020E060F1BDC04A0020C44A002067
:10328000C84A0020CC4A002080B542480078012876
:1032900003D101F0F2FA4B49086001BD10B53D4879
:1032A0000078002811D101F0E8FA46490968401A6F
:1032B000040045480068A04201D2434804604348E6
:1032C0000068A04201D24148046010BDD04A0020ED
:1032D00070B5040000263E48007801284CD103F068
:1032E0009BFE060003F082FF20680500002D05D13B
:1032F00003F090FF300003F093FE3DE02E4885423E
:1033000005D103F087FF300003F08AFE34E0A86D9A
:10331000002802D0A86D401EA865A86D002805D021
:1033200003F078FF300003F07BFE25E020890228BF
:1033300005DA03F06FFF300003F072FE1CE0154861
:103340000078002805D003F065FF300003F068FE28
:1033500012E02000FFF73AFF20680500686D0028A2
:1033600003D11C480068A86501E0686DA86503F0FA
:1033700051FF300003F054FE70BD0000864B00206A
:1033800090470020384B0020344B0020104B002089
:1033900004ED00E0874B0020854B0020D44A00203C
:1033A000004B002040A900083CA9000838A90008EB
:1033B000F32C0008A4A800085044002028A9000805
:1033C00010A90008EC4A0020F04A0020F44A00202E
:1033D000884B0020F84A002038B504000D00002D6D
:1033E00011D000AB02222900200004F004F8BDF83F
:1033F0000000002803D1032084F8360006E00220F4
:1034000084F8360002E0022084F836002000FFF73E
:1034100002FF31BD10B50400200004F0E0F894F87C
:103420003600400702D42000FFF760FE10BD6400A4
:103430002DE9FE4F84B00500119E139F179CDDF807
:10344000608000200290DFF868050078002804D032
:1034500047F24A10A8F80000C2E0002D04D147F25C
:10346000AD10A8F80000BBE00598002804D147F291
:103470004F10A8F80000B3E0002E04D146F62C60EF
:10348000A8F80000ACE0DFF8B4050068874204D279
:1034900046F62D60A8F80000A2E01298B84204D3C6
:1034A00046F62E60A8F800009AE09DF840000A2831
:1034B00004D346F27320A8F8000091E09DF8400084
:1034C000092808D1DFF89005854204D046F2732020
:1034D000A8F8000084E0280000F0C4FA0020A8F852
:1034E0000000E0070ED5A0070CD5B14600208246AB
:1034F000BA4507D20020C9F8000019F104091AF1F1
:10350000010AF5E7129816EB80000390A4B201942B
:103510000097039B32000699059801F080FB8146D5
:103520000598A8620698E862049828629DF8400011
:1035300085F83700C5F800900398A860159868656D
:103540001598002804D1DFF814050068A86501E08B
:103550001598A865169868606E62AF63AC87002006
:1035600083461FFA8BFBBBF1000F08D100201FFA26
:103570008BFB15EB8B01C8671BF1010BF1E7BDF865
:10358000501015F1640004F082FB280001F026FBC6
:1035900003F042FD029003F029FE95F8370003F096
:1035A00093FE2800FFF7DAFD280000F005FADFF8A7
:1035B000B0040088401CDFF8A8140880DFF8C805B4
:1035C0000078012805D003F025FE029803F028FDBD
:1035D00006E003F01FFE029803F022FDFFF798FAC1
:1035E00007B0BDE8F08FF8B504000D000026DFF845
:1035F000C0030078002803D047F24E10288075E001
:10360000DFF85404844203D147F24C1028806DE067
:10361000002C0DD103F000FD060003F0E7FDDFF8FC
:1036200094030068040003F0F5FD300003F0F8FC9B
:1036300003F0F2FC060003F0D9FD94F836000028F0
:103640000BD0022812D00DD304280AD00ED306289E
:103650000CD007D3072809D01EE02000FFF7DBFDC0
:1036600023E022E0200003F0BAFF1EE0200003F078
:10367000B6FF94F83400002808D0401E07D0401E42
:1036800004D0401E032802D9001F04D103E020000B
:10369000FFF74EFCFFE708E003F0BCFD300003F04D
:1036A000BFFC46F62A60288020E014F1640004F094
:1036B000C8FA0700200001F09CFA200000F095F9FC
:1036C000DFF89C030088401EDFF894130880200078
:1036D00000F0C8F9FF2084F8360003F09BFD3000AD
:1036E00003F09EFCFFF714FA00202880F1BD2DE9BD
:1036F000F84304000D0016001F005FF00009DFF81A
:10370000B0020078002804D046F2AE1038800020C5
:10371000D4E0002E01D00020306003F07DFC814613
:1037200003F064FDDFF864040068406C00283FD0BB
:10373000DFF858040068406C401EDFF85014096838
:103740004864DFF848040068406C8046002E04D0CE
:10375000DFF838040068006C306001F08EF8DFF8A4
:103760002C140968096C401ADFF820140968C1F8A4
:10377000A800DFF818040068D0F8AC00DFF80C14DB
:103780000968D1F8A810884209D2DFF8000400685F
:10379000D0F8A800DFF8F4130968C1F8AC0003F012
:1037A00039FD484603F03CFC00203880404685E067
:1037B000280409D503F02EFD484603F031FC46F2FB
:1037C000B0103880002079E0DFF8B40400780028D9
:1037D00009D003F01FFD484603F022FC46F6635073
:1037E000388000206AE02300072200210020FFF734
:1037F000C7FA03F00FFD484603F012FCFFF788F903
:1038000003F00AFC814603F0F1FCDFF88003006856
:1038100090F83500002804D001282ED0032837D096
:103820003EE0002E26D0DFF864030068006C3060B4
:1038300001F023F8DFF854130968096C401ADFF827
:103840004C130968C1F8A800DFF840030068D0F8FD
:10385000AC00DFF838130968D1F8A810884209D203
:10386000DFF828030068D0F8A800DFF82013096803
:10387000C1F8AC000020388015E0002E04D0DFF83D
:103880000C030068006C306046F2A91038800AE032
:10389000002E01D00020306047F2D920388002E0AD
:1038A00046F62B603880DFF8E4020068406C804602
:1038B00003F0B0FC484603F0B3FB4046BDE8F2839A
:1038C0002DE9F04104000D00160000F0D6FF8046FF
:1038D00033004246290089B2200000F063F9070056
:1038E0003800BDE8F0812DE9F04704000D00160016
:1038F0001F005FF0000A2E480078002803D047F22E
:103900005810388051E0002D03D146F2D520388080
:103910004BE0002E03D146F2D520388045E003F07D
:103920007BFB824603F062FC002C03D1DFF85C02D3
:1039300000680400206800280CD103F06BFC50469E
:1039400003F06EFB002028600020306047F2521028
:1039500038802AE094F83C00C0070CD403F05AFCED
:10396000504603F05DFB002028600020306047F2E5
:103970005410388019E003F04DFC504603F050FB22
:1039800000208046606A8146D9F80000002804D1F2
:1039900019F1040918F10108F6E7C5F80080A06BD9
:1039A000B0EB0800306000203880BDE8F0870000F0
:1039B000834B0020344B00200021C0F8C010DFF8FA
:1039C000C8120968002903D10021C0F8C41009E019
:1039D000DFF8B4120968C0F8C410DFF8AC12096847
:1039E000C1F8C000A84908607047D0F8C0301A007C
:1039F000D0F8C4301900002A0AD1A34B196000295D
:103A000002D00023C1F8C0300023C0F8C43012E057
:103A1000002906D10023C2F8C4300023C0F8C0300A
:103A200009E0C2F8C410C1F8C0200023C0F8C430B7
:103A30000023C0F8C03070470000000070A90008E3
:103A40000021914A11600021054A118000218F4A0E
:103A5000116000210180704750440020F84A002086
:103A6000684B002070B50400002020600020A0609A
:103A7000002060600020E060002020610020606184
:103A80000020A0610020E061814820620020606287
:103A90000020A0620020E062002020630020E08778
:103AA000002020640020E0650020A4F860000021D0
:103AB00014F1640004F0EBF8002060670020A067B8
:103AC0000020C4F880000020A4F888000020C4F87A
:103AD000840000200500EDB2002D06D10020EDB2DB
:103AE00014EB8501C8676D1CF5E7002060640020B9
:103AF000C4F8A8000020C4F8AC000020A063002097
:103B000084F88A000020C4F8B4000020C4F8B00093
:103B10000020A0875FF00040A0640020E064002047
:103B20002065002060650020A065002084F88B00DF
:103B30000020C4F88C000020C4F8900000F09DFE26
:103B40000600C4F8946000200021C4E9260100208A
:103B5000C4F8B8000020C4F8BC00002084F8340089
:103B6000002084F83500002084F836000A2084F80C
:103B700037000020C4F8C0000020C4F8C40041A0F1
:103B8000C4F8C80070BD0000844B0020344B0020F6
:103B900080B54048006801F037F800A90020FFF721
:103BA00022FD01BD2DE9F84304000D0016001F00A1
:103BB0005FF0000903F030FA814603F017FB002C98
:103BC00002D134480068040026640020388094F84C
:103BD000360000280BD0022822D008D3042806D0B3
:103BE0001ED306281CD002D3072819D03AE0606CF7
:103BF00010F1010F09D103F00DFB484603F010FA54
:103C000046F6C5503880002037E0606C401C606488
:103C1000606C804603F0FEFA484603F001FA2BE0A0
:103C200094F83400072812D10096002300222100C6
:103C30000020FFF7C3F9606C804603F0EBFA4846BA
:103C400003F0EEF928040CD4FEF762FF09E0606C83
:103C5000401C6064606C804603F0DCFA484603F068
:103C6000DFF909E003F0D6FA484603F0D9F946F641
:103C70002A603880002080464046BDE8F28300007C
:103C8000874B002020000000144B0020104B002028
:103C900030A90008344B00200100481E89B20029D9
:103CA00007D006210A0011004A1E89B20029FAD164
:103CB000F2E770470100481E89B2002908D04FF48E
:103CC00096610A0011004A1E89B20029FAD1F1E773
:103CD000704780B50121082004F07DFB4FF4886017
:103CE000ADF8000010208DF8030003208DF80200CD
:103CF0006946DFF8680404F0D1FB4FF40860ADF8C2
:103D0000000048208DF8030003208DF8020069466A
:103D1000DFF8480404F0C2FB01BD80B5DFF84004C1
:103D20000078012802D002280FD01DE08020ADF8D5
:103D3000000048208DF8030003208DF8020069463A
:103D4000DFF8180404F0AAFB0EE04FF40060ADF8B1
:103D5000000048208DF8030003208DF8020069461A
:103D6000DFF8F80304F09AFB01BD80B5DFF8F0033B
:103D70000078012802D002280FD01DE08020ADF885
:103D8000000010208DF8030003208DF80200694622
:103D9000DFF8C80304F082FB0EE04FF40060ADF8DA
:103DA000000010208DF8030003208DF80200694602
:103DB000DFF8A80304F072FB01BD80B5DFF8A003B3
:103DC0000078012802D0022806D00BE08021DFF81D
:103DD0008C0304F013FC05E04FF40061DFF87C0372
:103DE00004F00CFC01BD80B5DFF8740300780128F5
:103DF00002D0022806D00BE08021DFF8600304F037
:103E000000FC05E04FF40061DFF8500304F0F9FB1B
:103E100001BD80B5DFF848030078012802D00228F0
:103E200006D00AE04021DFF8340304F0EAFB04E0A6
:103E30004FF48061C94804F0E4FB01BD80B5C84877
:103E40000078012802D0022805D009E04021C348AB
:103E500004F0D4FB04E04FF48061C04804F0CEFBD2
:103E600001BD10B50024BE480078012802D0022808
:103E700006D00BE08021B94804F0B3FB040005E054
:103E80004FF40061B54804F0ACFB04002000C0B260
:103E900010BD80B5FFF769FFFFF78FFFFFF7CEFF7B
:103EA0000520FFF7F9FEFFF79EFF0520FFF7F4FE60
:103EB000FFF7AFFF01BD80B5FFF757FFFFF793FF97
:103EC000FFF7BCFF0520FFF7E7FEFFF776FF0520B1
:103ED000FFF7E2FEFFF7B2FF01BD10B50024FFF7C8
:103EE0001CFFFFF76AFFFFF794FF0520FFF7D4FEE2
:103EF000FFF7A4FF0520FFF7CFFEFFF7B2FF002872
:103F000008D0641C41F270708442F6D3FFF781FF41
:103F1000012002E0FFF77DFF002010BD80B5FFF714
:103F200078FFFFF722FFFFF75EFF0520FFF7B4FEE3
:103F3000FFF784FF0520FFF7AFFEFFF76AFF01BD23
:103F400080B5FFF766FFFFF710FFFFF736FF05208C
:103F5000FFF7A2FEFFF772FF0520FFF79DFEFFF7B8
:103F600058FF01BD38B50400FFF7FFFEFFF751FF12
:103F700000200500EDB2082D1ADA2000C0B2C009F9
:103F8000C0B2002802D0FFF718FF01E0FFF72BFFB7
:103F900064000520FFF780FEFFF750FF0520FFF7C4
:103FA0007BFEFFF736FF0520FFF776FE6D1CE1E78D
:103FB00031BD70B504000026FFF7AFFE00200500FC
:103FC000EDB2082D15DAFFF724FF0520FFF764FE98
:103FD000FFF734FF0520FFF75FFE7600FFF741FF94
:103FE000012801D156F001060520FFF755FE6D1C92
:103FF000E6E7E4B2002C02D1FFF7A2FF01E0FFF7F1
:104000008DFF3000C0B270BD70B504000D000026F9
:10401000FFF73FFF52480078012802D0022804D061
:1040200006E0A020FFF79EFF02E0A020FFF79AFF26
:10403000FFF753FF002825D1200080B2000AC0B24C
:10404000FFF790FFFFF749FF002818D12000C0B20A
:10405000FFF788FFFFF741FF00280DD12800C0B20D
:10406000FFF780FFFFF739FF002802D1002006008C
:104070000AE00120060007E00120060004E001201C
:10408000060001E001200600F6B2012EC0D0FFF7C5
:1040900012FFFA20FFF700FEFA20FFF7FDFDFA20DD
:1040A000FFF7FAFDFA20FFF7F7FD70BD70B50400C9
:1040B0000026FFF7EEFE2A480078012802D00228E9
:1040C00004D006E0A020FFF74DFF02E0A020FFF79C
:1040D00049FFFFF702FF002835D1200080B2000A17
:1040E000C0B2FFF73FFFFFF7F8FE002828D12000FD
:1040F000C0B2FFF737FFFFF7F0FE00281DD1FFF732
:10410000C8FE17480078012802D0022804D006E033
:10411000A120FFF727FF02E0A120FFF723FFFFF711
:10412000DCFE002806D10020FFF743FF0600002038
:1041300005000AE00120050007E00020050004E07A
:104140000120050001E001200500EDB2012DB0D0F5
:10415000FFF7B1FE3000C0B270BD0000000C01409E
:10416000774B002038B504000D002978200080B27C
:10417000FFF74AFF31BD70B504000D00200080B28A
:10418000FFF794FF06002E7070BD70B504000D009F
:104190000120060076B2002E08D476B2A95D200078
:1041A00080B2FFF731FF641C761EF3E770BDF8B5EF
:1041B00004000D00012007007FB2002F0CD4200066
:1041C00080B2FFF773FF0600641C7FB2E85D3043E6
:1041D0007FB2E8557F1EEFE7F1BD70B504000D001A
:1041E0000320060076B2002E08D476B2A95D200026
:1041F00080B2FFF709FF641C761EF3E770BDF8B5C7
:1042000004000D00032007007FB2002F09D4200016
:1042100080B2FFF74BFF0600641C7FB2EE557F1E95
:10422000F2E7F1BD80B5FEF7F1F903F0A5FF5FF409
:10423000803003F0D1FF03F0FAFF002004F034F8DF
:10424000002004F045F84FF4806004F037F84FF494
:10425000004004F048F8022004F01EFA102004F098
:1042600027FA5FF4E0115FF4803004F000F80120D9
:1042700004F00BF8392004F0CCF80028FAD0022022
:1042800004F008F8392004F0C4F80028FAD000F04F
:1042900020F8DFF8F015B0FBF1F0DFF8EC1508605E
:1042A000DFF8E4050068DFF8E015086000F019F8B1
:1042B000FFF70FFD02F0A4FA4FF4165000F0D2FE03
:1042C0004FF4964000F02FFE4FF4964000F08EFD24
:1042D00001BD00B585B0684604F00FF8019805B03F
:1042E00000BD80B5012140F2FD1004F074F80121F9
:1042F000DFF8980504F088F9B020ADF8000003203D
:104300008DF8020010208DF803006946DFF8800563
:1043100004F0C4F80320ADF8000003208DF802007B
:1043200010208DF803006946DFF8680504F0B6F840
:104330004EF23F00ADF8000003208DF8020010207F
:104340008DF803006946DFF8500504F0A7F84FF434
:104350000070ADF8000003208DF8020010208DF8E9
:1043600003006946DFF8340504F098F843F6E0707E
:10437000ADF8000003208DF8020010208DF8030036
:104380006946DFF81C0504F089F80120DFF81415F0
:1043900008600120DFF8101508600120DFF80C1517
:1043A00008600120DFF8081508600120DFF8041517
:1043B00008600120DFF8FC1408600120DFF8F81421
:1043C00008600120DFF8F41408600120DFF8F01421
:1043D00008600120DFF8EC1408600120DFF8E81421
:1043E00008600120DFF8E41408600120DFF8E01421
:1043F00008600120DFF8DC1408600120DFF8D41425
:1044000008600120DFF8D01408600120DFF8CC1428
:1044100008600120DFF8C81408600120DFF8C41428
:1044200008600120DFF8C01408600120DFF8BC1428
:1044300008600120DFF8B81408600120DFF8B41428
:1044400008600120DFF8AC1408600120DFF8A81430
:1044500008600120DFF8A41408600120DFF8A01430
:1044600008604FF48850ADF8000048208DF8030034
:104470006946DFF81C0404F011F84FF40870ADF839
:10448000000048208DF803006946DFF8080404F0B6
:1044900005F84FF49650ADF8000048208DF8030061
:1044A0006946DFF8F40303F0F9FF4FF6FF40ADF87B
:1044B000000048208DF803006946DFF8E00303F0B0
:1044C000EDFF0320ADF8000048208DF80300694699
:1044D000DFF8CC0303F0E2FF0020DFF8E813086008
:1044E0000020DFF8DC13086001BD38B5DFF81404E4
:1044F0000400DFF8140405000120DFF81014087030
:10450000DFF80C140120FFF752FEDFF80404B0F9C5
:1045100000006080DFF8FC130320FFF748FEDFF89F
:10452000F403B0F90000E080DFF8EC130D20FFF792
:1045300066FEDFF8E403016819204143A183DFF838
:10454000D803016819204143090C6183DFF8CC13BB
:104550001120FFF754FEDFF8C4030168192041431E
:10456000A184DFF8B803016819204143090C618474
:10457000DFF8AC131520FFF742FEDFF8A403016853
:1045800019204143A185DFF89803016819204143B0
:10459000090C6185DFF88C131920FFF730FEDFF876
:1045A0008403016819204143A186DFF8780301687C
:1045B00019204143090C6186DFF86C131D20FFF7B9
:1045C0001EFEDFF868030068C078DFF86013096832
:1045D000897811EB00216187DFF85003006840788B
:1045E000DFF848130968097811EB0021A187DFF88B
:1045F00040132120FFF703FEDFF838030068C0787E
:10460000DFF830130968897811EB0021A4F8421013
:10461000DFF8200300684078DFF81813096809788C
:1046200011EB0021A4F84410C3492520FFF7E7FD52
:10463000C2480068C078C1490968897811EB002137
:10464000A4F84A10BD4800684078BC490968097858
:1046500011EB0021A4F84C10B9492920FFF7CFFD38
:10466000B8480068C078B7490968897811EB00211B
:10467000A4F85210B34800684078B2490968097834
:1046800011EB0021A4F85410AF492D20FFF7B7FD1E
:10469000AE480068C078AD490968897811EB0021FF
:1046A000A4F85A10A94800684078A8490968097810
:1046B00011EB0021A4F85C10A5493120FFF79FFD04
:1046C000A4480068C078A3490968897811EB0021E3
:1046D000A4F862109F48006840789E4909680978EC
:1046E00011EB0021A4F864109B493520FFF75FFD12
:1046F0009948B0F90000A4F86A00974800889749E3
:1047000008809648B0F90000A4F8A6009449372024
:10471000FFF74DFD9248B0F90000A4F86E009149F2
:104720003920FFF744FD8F48B0F90000A4F872006B
:104730008D493B20FFF73BFD8B48008840F6B9319F
:10474000884203DB40F6B830874908808648B0F9D4
:104750000000A4F8760085493D20FFF728FD834836
:10476000008840F6B931884203DB40F6B8307F4913
:1047700008807E48B0F90000A4F87A007C493F2008
:10478000FFF715FD7A48008840F2DD51884203DBCF
:1047900040F2DC50764908807548B0F90000A4F872
:1047A0007E0074494120FFF702FD7248008840F204
:1047B000DD51884203DB40F2DC506E4908806D48D1
:1047C000B0F90000A4F882006B494520FFF717FDFF
:1047D00069480068A4F88C0067480068000CA4F8D9
:1047E0008A006946DC20FFF7C6FC9DF80000FF2820
:1047F00008D1012028756148407950F001005F49D7
:10480000487107E0002028755C48407910F0FE00F0
:104810005A4948716946DD20FFF7ADFC9DF800005C
:10482000FF2808D1012068755448407950F00200F3
:104830005249487107E0002068755048407910F0EF
:10484000FD004E4948716946DF20FFF794FC9DF852
:104850000000FF2808D10120E8754848807950F011
:1048600004004649887107E00020E87543488079D4
:1048700010F0FB004149887131BD41480068704724
:104880000000000040420F00804A0020000230007B
:1048900000080140000C01400010014000140140DC
:1048A0000018014098012342B801224280012242AF
:1048B00088012242900121429C012142940121421F
:1048C0008C01224284012242BC012242B4012242D4
:1048D000940123429401224284812142A001234277
:1048E000A8012342B0012342B4012342A481224201
:1048F000AC012342A40123429C0123428081214236
:1049000090012242A03D0020802A0020774B002009
:104910003C4B00203E4B00205C4A0020604A0020B7
:10492000544A0020584A0020684A0020080000200D
:10493000704A002010000020784A00201800002053
:10494000644A0020040000206C4A00200C00002073
:10495000744A002014000020484B00204A4B0020DD
:104960004E4B0020524B0020404B0020424B002079
:10497000444B0020464B00207C4A00202C4A00205B
:10498000041000E010B5002402F046FB040002F021
:104990002DFC0FF215006849086002F03BFC200076
:1049A00002F03EFB10BD000038B5644804006448C6
:1049B000050001F027F9FBF77CFD62480088401CE8
:1049C000604908805F480088B0F57A7F40F0B38086
:1049D00000205C4908805C484079C0F3C000C0B248
:1049E000002823D059480088002811D05748008853
:1049F000401E564908805548B0F90000A4F8A600AA
:104A00005248008805280CD100205149086008E070
:104A10000120504908704C48407910F0F7004A498D
:104A200048714A48B0F90000A4F8A6004648407909
:104A3000C0F34010C0B2002812D0474800880028B8
:104A40000ED045480088401E4349088042480088EF
:104A5000002805D13C48407910F0DF003A49487100
:104A600039484079C0F38000C0B2002809D03B48E3
:104A70000088401C394908803848B0F90000A4F883
:104A800086003148807910F00100002839D0344880
:104A90000088002805D032480088401E3049088030
:104AA0002FE001202F490860002085F8AD0126483D
:104AB000807910F0FE00244988712B4800780F2877
:104AC0001FD1B4F8760029490880B4F87A00284943
:104AD000088026480088002802D101202349088048
:104AE00023480088002802D101202149088020485D
:104AF0000188002002F04AF91C480188002002F0D9
:104B0000C1F911484079C0F30010C0B2002812D09A
:104B100018480088002805D016480088401E15490E
:104B2000088008E00120144908700748407910F017
:104B3000EF000549487131BDD04A0020A03D00205A
:104B4000802A00205C4B00202C4A00204A4B002089
:104B5000940121427A4B0020544B00204C4B002002
:104B60004E4B0020980123426C4B0020444B002008
:104B7000464B0020524B00207B4B002070B582B08A
:104B800004000D0016006B462A003100200003F0DF
:104B9000ABF8BDF80000002801D0002000E00120A3
:104BA00076BD0D0080B57F480068002802D07D48A2
:104BB0000068804701BD7C4800687C49096811EBAA
:104BC0008000001F7A490860704780B57948006806
:104BD000002802D077480068804701BD10B5040066
:104BE00075480068002803D0200073490968884789
:104BF00010BD10B5040071480068002803D02000E3
:104C00006E490968884710BD10B504006C480068FB
:104C1000002803D020006A490968884710BD70B495
:104C20000400039D12EB85063000001F5FF08076C4
:104C30000660001F0460001F624E0660001F5FF0E8
:104C400012360660001F5FF003360660001F5FF03B
:104C500002360660001F0360001F0160001F5FF046
:104C600011360660001F5FF010360660001F5FF00F
:104C700009360660001F5FF008360660001F5FF00F
:104C800007360660001F5FF006360660001F5FF003
:104C900005360660001F5FF00436066070BC704782
:104CA00038B549480068002802D047480068804766
:104CB000FFF7E3FD0400454800684549096888425C
:104CC00017D042480068D0F89400201A3F4909687C
:104CD000C1F890003D480068D0E926233B480068B1
:104CE000D0F89000002110185941384A1268C2E9E2
:104CF000260137480068C0F8944002F045FA0500E4
:104D000032480068D0F8B800A84203D22F480068A3
:104D1000C0F8B8502D480068D0F8BC002D4909688B
:104D2000884205D22B48006828490968C1F8BC00B0
:104D300000202849086031BD80B527480068002858
:104D400002D025480068804701BD10B5002402F05C
:104D500063F9040002F04AFA20480078401C1F4919
:104D6000087002F057FA200002F05AF900F093FCA4
:104D7000FDF76AFE10BD421E194B1A60194A1268EF
:104D800011000902090A174A1160174A126852F005
:104D90000502154B1A60144A126852F00202124BB7
:104DA0001A607047C44A00204CA9000848A90008AE
:104DB000B04A0020C84A0020B84A0020BC4A00205F
:104DC000C04A0020913B0008CC4A0020344B002010
:104DD000384B0020F44A0020D04A0020834B0020AA
:104DE00014E000E020ED00E010E000E030B589B014
:104DF000040004940020ADF814000020ADF8160063
:104E00000020ADF818000020ADF81C000C20ADF813
:104E10001A000020ADF808000020ADF80A004FF499
:104E20000070ADF80C000020ADF80E00512003F02A
:104E300051FC222003F04EFC202003F04BFC042008
:104E4000ADF8000003208DF8020018208DF8030053
:104E50006946DFF8800503F021FB0820ADF800006B
:104E600004208DF803006946DFF8680503F016FB9F
:104E700004A9DFF8640503F075FC02A9DFF8580502
:104E800003F0E2FC0121DFF8500503F0EFFC012202
:104E900040F22551DFF8400503F0F6FC002240F215
:104EA0002771DFF8340503F0EFFC4021DFF8280517
:104EB00003F01DFD0500EDB2012D12D140F2266177
:104EC000DFF8140503F05FFD40F22661DFF8080506
:104ED00003F01CFD4021DFF8000503F008FD05008C
:104EE000E9E70FF295312620FDF77CFB2620FDF740
:104EF0006FFB00215FF0006003F091FD4FF4E06074
:104F000003F054FD26208DF804000F208DF80500D5
:104F100002208DF8060001208DF8070001A803F09B
:104F20004AFD09B030BD30B589B0040004940020BA
:104F3000ADF814000020ADF816000020ADF8180000
:104F40000020ADF81C000C20ADF81A000020ADF8D0
:104F500008000020ADF80A004FF40070ADF80C0016
:104F60000020ADF80E00522003F0B4FB232003F024
:104F7000B1FB202003F0AEFB4FF48060ADF80000E1
:104F800003208DF8020018208DF803006946DFF831
:104F90004C0403F083FA4FF40060ADF800000420E5
:104FA0008DF803006946DFF8340403F077FA04A9AA
:104FB000DFF82C0403F0D6FB02A9DFF8240403F089
:104FC00043FC0121DFF8180403F050FC012240F2F9
:104FD0002551DFF80C0403F057FC002240F2277142
:104FE000DFF8FC0303F050FC4021DFF8F40303F08A
:104FF0007EFC0500EDB2012D12D140F22661DFF8F2
:10500000E00303F0C0FC40F22661DFF8D40303F0B4
:105010007DFC4021DFF8C80303F069FC0500E9E7E7
:105020000FF2D5212720FDF7DDFA2720FDF7D0FA72
:1050300000215FF0006003F0F2FC4FF4E06003F049
:10504000B5FC27208DF804000F208DF80500022004
:105050008DF8060001208DF8070001A803F0ABFCD5
:1050600009B030BD30B589B0040004940020ADF81B
:1050700014000020ADF816000020ADF81800002044
:10508000ADF81C000C20ADF81A000020ADF80800A7
:105090000020ADF80A004FF40070ADF80C000020BD
:1050A000ADF80E00532003F015FB242003F012FB93
:1050B000202003F00FFB4FF48060ADF800000320C8
:1050C0008DF8020018208DF803006946DFF81403FC
:1050D00003F0E4F94FF40060ADF8000004208DF80F
:1050E00003006946DFF8FC0203F0D8F904A9DFF8F1
:1050F000F80203F037FB02A9DFF8EC0203F0A4FB8F
:105100000121DFF8E40203F0B1FB012240F2255156
:10511000DFF8D40203F0B8FB002240F22771DFF879
:10512000C80203F0B1FB4021DFF8BC0203F0DFFB53
:105130000500EDB2012D12D140F22661DFF8A80280
:1051400003F021FC40F22661DFF89C0203F0DEFB55
:105150004021DFF8940203F0CAFB0500E9E70FF2F3
:1051600019213420FDF73EFA3420FDF731FA0021F1
:105170005FF0006003F053FC4FF4E06003F016FCB6
:1051800034208DF804000F208DF8050000208DF8E4
:10519000060001208DF8070001A803F00CFC002098
:1051A000DFF84812086009B030BD10B50400E4B261
:1051B000210089B2DFF8200203F091FB4021DFF8E3
:1051C000180203F094FB0028F8D04021DFF8080211
:1051D00003F09CFB10BD10B50400E4B2210089B2BD
:1051E000DFF8FC0103F07BFB4021DFF8F40103F062
:1051F0007EFB0028F8D04021DFF8E40103F086FBB5
:1052000010BD10B50400E4B2210089B2DFF8D80166
:1052100003F065FB4021DFF8D00103F068FB0028B4
:10522000F8D04021DFF8C00103F070FB10BD70B56D
:1052300004000D000020060030002900C0B2C9B2F1
:10524000884205D2F6B2A05DFFF7C5FF761CF3E7F2
:1052500070BD70B504000D0000200600300029006C
:10526000C0B2C9B2884205D2F6B2A05DFFF79DFF79
:10527000761CF3E770BD000038B540F22551564862
:1052800003F04AFB0400E4B2012C33D1524803F08E
:105290002AFB0500EDB22B2D02D0EDB22D2D05D14C
:1052A000534845700220534908701EE05148007869
:1052B00009281AD24E484F49097845544D4800787C
:1052C000401C4C4908704A4840782B2803D0484875
:1052D00040782D2809D147480078082805D144484E
:1052E00003F023FC00204349087040F225513C485C
:1052F00003F049FB31BD000038B540F22551384874
:1053000003F00AFB0400E4B2012C33D1344803F06B
:10531000EAFA0500EDB22B2D02D0EDB22D2D05D10C
:10532000354845700220354908701EE03348007842
:1053300009281AD230483149097845542F48007855
:10534000401C2E4908702C4840782B2803D02A484E
:1053500040782D2809D129480078082805D1264809
:1053600003F072FB00202549087040F225511C48CB
:1053700003F009FB31BD000010B582B040F22551A9
:10538000194803F0C9FA0400E4B2012C20D112201C
:105390001B490870144803F0A6FA1A491A4A1278F1
:1053A000885419480078642804DA17480078401CAB
:1053B0001549087014480078082804DB6A46002163
:1053C0001248FEF77DFA40F22551074803F0DBFA58
:1053D00013BD00000008014000440040000C0140E3
:1053E0000048004000100140004C0040A4812242CF
:1053F000144A00207E4B0020204A00207F4B0020D2
:10540000824B00203C490020804B002010410020AE
:10541000F8B504000D0016000027DFF8C802007878
:10542000002803D047F27520308049E0DFF8B80249
:105430000078002803D046F66350308040E0ADB2DB
:105440002800002805D0022803D0042808D0082806
:1054500007D1002C03D147F27E20308030E004E0F9
:1054600003E045F6256030802AE001F0D5FD070015
:1054700001F0BCFE0120DFF87412096881F83600E3
:1054800033002A0092B22100DFF86002006801F0C8
:10549000B2FF3088002805D001F0BCFE380001F0D2
:1054A000BFFD0DE0DFF844020068FDF7B4FE01F037
:1054B000B1FE380001F0B4FDFDF72AFB002030807A
:1054C000F1BD2DE9FE4F05000E00170098460C9C1B
:1054D000DDF834905FF0000ADFF808020078002859
:1054E00004D047F27520A9F80000D2E0DFF8F801F7
:1054F0000078002804D046F66350A9F80000C8E000
:1055000014F00E00ADF80000BDF80000002805D032
:10551000022803D0042813D0082812D1B8F1000FB4
:105520000DD1BFB2002F0AD1B6B2002E07D1ADB255
:10553000002D04D147F27E20A9F80000A9E005E083
:1055400004E045F62560A9F80000A2E04FF6E171FD
:105550000C4202D15FF0000B01E05FF0010B5FFA3B
:105560008BFBBBF1010F04D145F62560A9F80000C3
:105570008FE0C4F3001080B210F001008DF802003B
:105580009DF8020001281FD0B8F57A7F04D347F2B6
:105590007B20A9F800007CE0BFB23C2F04DB47F27F
:1055A0007A20A9F8000074E0B6B23C2E04DB47F282
:1055B0007920A9F800006CE0ADB2642D17DB47F24A
:1055C0007820A9F8000064E0B6B242F2107086427A
:1055D00004DB47F27920A9F800005AE0ADB2B5F536
:1055E0007A7F04DB47F27820A9F8000051E04048B8
:1055F00000680190ADB24FF46160B6B23C2101FB8E
:1056000006F100FB0510BFB238180199019A4FF45A
:10561000FA73DDF804C0B3FBFCF313EB08035A4341
:105620004FF47A73B2FBF3F201FB00200290029870
:1056300000282AD001F0F0FC824601F0D7FD0120BD
:105640002A49096881F836004B46BDF800200299C6
:105650002648006801F0CFFEB9F80000002805D008
:1056600001F0D8FD504601F0DBFC12E01F48006855
:10567000FDF7D1FD01F0CEFD504601F0D1FCFDF764
:1056800047FA0020A9F8000003E047F27E20A9F8BD
:105690000000BDE8F78F10B582B0FFF74DFB00AA00
:1056A00000211448FEF70CF90400134800780C217F
:1056B000124A01FB0020FDF70BFE11480068401E56
:1056C0000F4908600E480068002808D10D4800689E
:1056D0000B49086000AA00210B48FEF7F1F813BD42
:1056E00000000000834B0020874B0020344B00203B
:1056F00074A90008F0450020854B00209047002049
:10570000304B00202C4B0020C04600202DE9F24FEA
:10571000050016001F000A9CDDF82C80DDF8309093
:10572000DDF834A05FF0000BDFF88C04007800286F
:1057300004D047F24330AAF800004FE0002D04D116
:1057400045F6C350AAF8000048E0A4B220000128A2
:1057500009D002280FD1002F04D147F24030AAF817
:1057600000003BE00CE0002E04D147F23F30AAF8E5
:10577000000033E004E045F62560AAF800002DE0C3
:1057800001F04AFC834601F031FD012085F82A0032
:10579000DFF828042860009868602E620020A86165
:1057A0000020E8616F622C85C5F80880C5F80C9070
:1057B0000020286100206861280000F065F8DFF80B
:1057C00000040088401CDFF8F813088001F022FD77
:1057D000584601F025FC0020AAF80000BDE8F18F32
:1057E00038B504000D00DFF8D0030078002804D09D
:1057F00047F243302880002045E0002C04D147F2D6
:105800004230288000203EE02068DFF8B013884254
:1058100004D045F6C4502880002034E000A8FDF7ED
:10582000BEF994F82A0000281ED0022803D010D315
:1058300003280ED020E0200000F02BF900212000EA
:1058400000F0A8F800A8FDF7DEF90020288001206C
:1058500019E00021200000F09DF800A8FDF7D3F921
:105860000020288001200EE000A8FDF7CCF947F2C7
:105870003D302880002006E000A8FDF7C4F947F27B
:1058800041302880002032BD0021C162DFF838138A
:105890000968002902D10021016307E0DFF828131D
:1058A00009680163DFF820130968C862DFF818137C
:1058B0000860704770B58AB004000020C2490860D3
:1058C000C2480068002808D0C1480068BF4909687C
:1058D000B0FBF1F0BF49086006E0BD4800680A214E
:1058E000B0FBF1F0BB490860BA480068BA490860EB
:1058F0000020B44908600020B84908600020050075
:10590000B7480088ADB285420CD2ADB2B54810EBB5
:10591000C50006000020B0800020F080002030602C
:105920006D1CEDE7B0480068002803D147F246300F
:1059300020802DE0AD480068AD490968884203D257
:1059400047F24630208023E0AA480078092803D394
:1059500046F2732020801BE008940320079000206B
:1059600006900020059000200490A0480068039055
:10597000A148006802909C48006801909D4800780A
:10598000009000230FF269129C499D48FDF750FDDD
:105990000AB070BDF0B4022680F82A6089B20129ED
:1059A00005D1466A874F3F68BE1986610DE0066AD9
:1059B000002E05D1466A834F3F68BE19866104E018
:1059C000066A804F3F68BE1986618669844F3F88AA
:1059D000B6FBF7FC07FB1C663500ADB2814E16EB3B
:1059E000C50632001668002E07D100260661002683
:1059F000466110600126968032E08669714F3F68EB
:105A0000F61BC66116683400002C26D0A6696D4FBF
:105A10003F68F61BE661E669C769BE420BD226699C
:105A2000002E01D02469EFE7002606614461206161
:105A300000263400E8E76669002E05D1002646619D
:105A400004616061106005E06669330043610461D0
:105A50001861606100263400D6E79688761C96802F
:105A6000D6889788BE4201D29688D680F0BC70470F
:105A7000002211005A4A128889B2914208D289B292
:105A8000584A12EBC10210000022C280491CF1E703
:105A90007047F0B48569524E3688B5FBF6F706FBC1
:105AA00017552C00A4B24F4D15EBC40529000D6805
:105AB000854207D105692A000A60002A0AD000251C
:105AC000556107E045692A0005692B001361002B29
:105AD00000D05A61012580F82A5000250561002573
